{
  "transactions": [
    {
      "hash": "0x80573e83b2bbbda9ba70161b6b222fc939e1d86aaa37a4465f2b43de60d72f27",
      "transactionType": "CREATE",
      "contractName": "MockERC20",
      "contractAddress": "0x6a09df4cefe76e41dc9a0900e7f8f8fdc65c406e",
      "function": null,
      "arguments": [
        "Mock Token",
        "MTK"
      ],
      "transaction": {
        "from": "0xf91f056855522c267624d5a921578d9a812e78f4",
        "gas": "0x1d360c",
        "value": "0x0",
        "input": "0x608060405234801561000f575f5ffd5b50604051611ea4380380611ea4833981810160405281019061003191906102ed565b33828281600390816100439190610573565b5080600490816100539190610573565b5050505f73ffffffffffffffffffffffffffffffffffffffff168173ffffffffffffffffffffffffffffffffffffffff16036100c6575f6040517f1e4fbdf70000000000000000000000000000000000000000000000000000000081526004016100bd9190610681565b60405180910390fd5b6100d5816100dd60201b60201c565b50505061069a565b5f60055f9054906101000a900473ffffffffffffffffffffffffffffffffffffffff1690508160055f6101000a81548173ffffffffffffffffffffffffffffffffffffffff021916908373ffffffffffffffffffffffffffffffffffffffff1602179055508173ffffffffffffffffffffffffffffffffffffffff168173ffffffffffffffffffffffffffffffffffffffff167f8be0079c531659141344cd1fd0a4f28419497f9722a3daafe3b4186f6b6457e060405160405180910390a35050565b5f604051905090565b5f5ffd5b5f5ffd5b5f5ffd5b5f5ffd5b5f601f19601f8301169050919050565b7f4e487b71000000000000000000000000000000000000000000000000000000005f52604160045260245ffd5b6101ff826101b9565b810181811067ffffffffffffffff8211171561021e5761021d6101c9565b5b80604052505050565b5f6102306101a0565b905061023c82826101f6565b919050565b5f67ffffffffffffffff82111561025b5761025a6101c9565b5b610264826101b9565b9050602081019050919050565b8281835e5f83830152505050565b5f61029161028c84610241565b610227565b9050828152602081018484840111156102ad576102ac6101b5565b5b6102b8848285610271565b509392505050565b5f82601f8301126102d4576102d36101b1565b5b81516102e484826020860161027f565b91505092915050565b5f5f60408385031215610303576103026101a9565b5b5f83015167ffffffffffffffff8111156103205761031f6101ad565b5b61032c858286016102c0565b925050602083015167ffffffffffffffff81111561034d5761034c6101ad565b5b610359858286016102c0565b9150509250929050565b5f81519050919050565b7f4e487b71000000000000000000000000000000000000000000000000000000005f52602260045260245ffd5b5f60028204905060018216806103b157607f821691505b6020821081036103c4576103c361036d565b5b50919050565b5f819050815f5260205f209050919050565b5f6020601f8301049050919050565b5f82821b905092915050565b5f600883026104267fffffffffffffffffffffffffffffffffffffffffffffffffffffffffffffffff826103eb565b61043086836103eb565b95508019841693508086168417925050509392505050565b5f819050919050565b5f819050919050565b5f61047461046f61046a84610448565b610451565b610448565b9050919050565b5f819050919050565b61048d8361045a565b6104a16104998261047b565b8484546103f7565b825550505050565b5f5f905090565b6104b86104a9565b6104c3818484610484565b505050565b5b818110156104e6576104db5f826104b0565b6001810190506104c9565b5050565b601f82111561052b576104fc816103ca565b610505846103dc565b81016020851015610514578190505b610528610520856103dc565b8301826104c8565b50505b505050565b5f82821c905092915050565b5f61054b5f1984600802610530565b1980831691505092915050565b5f610563838361053c565b9150826002028217905092915050565b61057c82610363565b67ffffffffffffffff811115610595576105946101c9565b5b61059f825461039a565b6105aa8282856104ea565b5f60209050601f8311600181146105db575f84156105c9578287015190505b6105d38582610558565b86555061063a565b601f1984166105e9866103ca565b5f5b82811015610610578489015182556001820191506020850194506020810190506105eb565b8683101561062d5784890151610629601f89168261053c565b8355505b6001600288020188555050505b505050505050565b5f73ffffffffffffffffffffffffffffffffffffffff82169050919050565b5f61066b82610642565b9050919050565b61067b81610661565b82525050565b5f6020820190506106945f830184610672565b92915050565b6117fd806106a75f395ff3fe608060405234801561000f575f5ffd5b5060043610610109575f3560e01c8063715018a6116100a0578063a9059cbb1161006f578063a9059cbb14610291578063dd62ed3e146102c1578063e58306f9146102f1578063f2fde38b1461030d578063f83a1a7f1461032957610109565b8063715018a61461022f5780638da5cb5b1461023957806395d89b41146102575780639dc29fac1461027557610109565b8063313ce567116100dc578063313ce567146101a95780633ab043b2146101c757806340c10f19146101e357806370a08231146101ff57610109565b806306fdde031461010d578063095ea7b31461012b57806318160ddd1461015b57806323b872dd14610179575b5f5ffd5b610115610359565b6040516101229190611263565b60405180910390f35b61014560048036038101906101409190611314565b6103e9565b604051610152919061136c565b60405180910390f35b61016361040b565b6040516101709190611394565b60405180910390f35b610193600480360381019061018e91906113ad565b610414565b6040516101a0919061136c565b60405180910390f35b6101b1610442565b6040516101be9190611418565b60405180910390f35b6101e160048036038101906101dc919061145b565b61044a565b005b6101fd60048036038101906101f89190611314565b6104e3565b005b61021960048036038101906102149190611499565b6105c8565b6040516102269190611394565b60405180910390f35b61023761060d565b005b610241610620565b60405161024e91906114d3565b60405180910390f35b61025f610648565b60405161026c9190611263565b60405180910390f35b61028f600480360381019061028a9190611314565b6106d8565b005b6102ab60048036038101906102a69190611314565b6107bd565b6040516102b8919061136c565b60405180910390f35b6102db60048036038101906102d691906114ec565b6107df565b6040516102e89190611394565b60405180910390f35b61030b60048036038101906103069190611314565b610861565b005b61032760048036038101906103229190611499565b610877565b005b610343600480360381019061033e9190611499565b6108fb565b604051610350919061136c565b60405180910390f35b60606003805461036890611557565b80601f016020809104026020016040519081016040528092919081815260200182805461039490611557565b80156103df5780601f106103b6576101008083540402835291602001916103df565b820191905f5260205f20905b8154815290600101906020018083116103c257829003601f168201915b5050505050905090565b5f5f6103f3610918565b905061040081858561091f565b600191505092915050565b5f600254905090565b5f5f61041e610918565b905061042b858285610931565b6104368585856109c4565b60019150509392505050565b5f6012905090565b610452610ab4565b8060065f8473ffffffffffffffffffffffffffffffffffffffff1673ffffffffffffffffffffffffffffffffffffffff1681526020019081526020015f205f6101000a81548160ff0219169083151502179055507fba8c3ada23804cca7937a34fd94dd53794a46b64adf3997a33a373ce216103b882826040516104d7929190611587565b60405180910390a15050565b60065f3373ffffffffffffffffffffffffffffffffffffffff1673ffffffffffffffffffffffffffffffffffffffff1681526020019081526020015f205f9054906101000a900460ff1661056c576040517f08c379a0000000000000000000000000000000000000000000000000000000008152600401610563906115f8565b60405180910390fd5b6105768282610b3b565b8173ffffffffffffffffffffffffffffffffffffffff167f3f2c9d57c068687834f0de942a9babb9e5acab57d516d3480a3c16ee165a4273826040516105bc9190611394565b60405180910390a25050565b5f5f5f8373ffffffffffffffffffffffffffffffffffffffff1673ffffffffffffffffffffffffffffffffffffffff1681526020019081526020015f20549050919050565b610615610ab4565b61061e5f610bba565b565b5f60055f9054906101000a900473ffffffffffffffffffffffffffffffffffffffff16905090565b60606004805461065790611557565b80601f016020809104026020016040519081016040528092919081815260200182805461068390611557565b80156106ce5780601f106106a5576101008083540402835291602001916106ce565b820191905f5260205f20905b8154815290600101906020018083116106b157829003601f168201915b5050505050905090565b60065f3373ffffffffffffffffffffffffffffffffffffffff1673ffffffffffffffffffffffffffffffffffffffff1681526020019081526020015f205f9054906101000a900460ff16610761576040517f08c379a0000000000000000000000000000000000000000000000000000000008152600401610758906115f8565b60405180910390fd5b61076b8282610c7d565b8173ffffffffffffffffffffffffffffffffffffffff167ffd38818f5291bf0bb3a2a48aadc06ba8757865d1dabd804585338aab3009dcb6826040516107b19190611394565b60405180910390a25050565b5f5f6107c7610918565b90506107d48185856109c4565b600191505092915050565b5f60015f8473ffffffffffffffffffffffffffffffffffffffff1673ffffffffffffffffffffffffffffffffffffffff1681526020019081526020015f205f8373ffffffffffffffffffffffffffffffffffffffff1673ffffffffffffffffffffffffffffffffffffffff1681526020019081526020015f2054905092915050565b610869610ab4565b6108738282610b3b565b5050565b61087f610ab4565b5f73ffffffffffffffffffffffffffffffffffffffff168173ffffffffffffffffffffffffffffffffffffffff16036108ef575f6040517f1e4fbdf70000000000000000000000000000000000000000000000000000000081526004016108e691906114d3565b60405180910390fd5b6108f881610bba565b50565b6006602052805f5260405f205f915054906101000a900460ff1681565b5f33905090565b61092c8383836001610d8c565b505050565b5f61093c84846107df565b90507fffffffffffffffffffffffffffffffffffffffffffffffffffffffffffffffff8110156109be57818110156109af578281836040517ffb8f41b20000000000000000000000000000000000000000000000000000000081526004016109a693929190611616565b60405180910390fd5b6109bd84848484035f610d8c565b5b50505050565b5f73ffffffffffffffffffffffffffffffffffffffff168373ffffffffffffffffffffffffffffffffffffffff1603610a34575f6040517f96c6fd1e000000000000000000000000000000000000000000000000000000008152600401610a2b91906114d3565b60405180910390fd5b5f73ffffffffffffffffffffffffffffffffffffffff168273ffffffffffffffffffffffffffffffffffffffff1603610aa4575f6040517fec442f05000000000000000000000000000000000000000000000000000000008152600401610a9b91906114d3565b60405180910390fd5b610aaf838383610f5b565b505050565b610abc610918565b73ffffffffffffffffffffffffffffffffffffffff16610ada610620565b73ffffffffffffffffffffffffffffffffffffffff1614610b3957610afd610918565b6040517f118cdaa7000000000000000000000000000000000000000000000000000000008152600401610b3091906114d3565b60405180910390fd5b565b5f73ffffffffffffffffffffffffffffffffffffffff168273ffffffffffffffffffffffffffffffffffffffff1603610bab575f6040517fec442f05000000000000000000000000000000000000000000000000000000008152600401610ba291906114d3565b60405180910390fd5b610bb65f8383610f5b565b5050565b5f60055f9054906101000a900473ffffffffffffffffffffffffffffffffffffffff1690508160055f6101000a81548173ffffffffffffffffffffffffffffffffffffffff021916908373ffffffffffffffffffffffffffffffffffffffff1602179055508173ffffffffffffffffffffffffffffffffffffffff168173ffffffffffffffffffffffffffffffffffffffff167f8be0079c531659141344cd1fd0a4f28419497f9722a3daafe3b4186f6b6457e060405160405180910390a35050565b5f73ffffffffffffffffffffffffffffffffffffffff168273ffffffffffffffffffffffffffffffffffffffff1603610ceb576040517f08c379a0000000000000000000000000000000000000000000000000000000008152600401610ce2906116bb565b60405180910390fd5b3373ffffffffffffffffffffffffffffffffffffffff168273ffffffffffffffffffffffffffffffffffffffff1614610d7d575f610d28836105c8565b905081811015610d6d576040517f08c379a0000000000000000000000000000000000000000000000000000000008152600401610d6490611749565b60405180910390fd5b610d778383611174565b50610d88565b610d878282611174565b5b5050565b5f73ffffffffffffffffffffffffffffffffffffffff168473ffffffffffffffffffffffffffffffffffffffff1603610dfc575f6040517fe602df05000000000000000000000000000000000000000000000000000000008152600401610df391906114d3565b60405180910390fd5b5f73ffffffffffffffffffffffffffffffffffffffff168373ffffffffffffffffffffffffffffffffffffffff1603610e6c575f6040517f94280d62000000000000000000000000000000000000000000000000000000008152600401610e6391906114d3565b60405180910390fd5b8160015f8673ffffffffffffffffffffffffffffffffffffffff1673ffffffffffffffffffffffffffffffffffffffff1681526020019081526020015f205f8573ffffffffffffffffffffffffffffffffffffffff1673ffffffffffffffffffffffffffffffffffffffff1681526020019081526020015f20819055508015610f55578273ffffffffffffffffffffffffffffffffffffffff168473ffffffffffffffffffffffffffffffffffffffff167f8c5be1e5ebec7d5bd14f71427d1e84f3dd0314c0f7b2291e5b200ac8c7c3b92584604051610f4c9190611394565b60405180910390a35b50505050565b5f73ffffffffffffffffffffffffffffffffffffffff168373ffffffffffffffffffffffffffffffffffffffff1603610fab578060025f828254610f9f9190611794565b92505081905550611079565b5f5f5f8573ffffffffffffffffffffffffffffffffffffffff1673ffffffffffffffffffffffffffffffffffffffff1681526020019081526020015f2054905081811015611034578381836040517fe450d38c00000000000000000000000000000000000000000000000000000000815260040161102b93929190611616565b60405180910390fd5b8181035f5f8673ffffffffffffffffffffffffffffffffffffffff1673ffffffffffffffffffffffffffffffffffffffff1681526020019081526020015f2081905550505b5f73ffffffffffffffffffffffffffffffffffffffff168273ffffffffffffffffffffffffffffffffffffffff16036110c0578060025f828254039250508190555061110a565b805f5f8473ffffffffffffffffffffffffffffffffffffffff1673ffffffffffffffffffffffffffffffffffffffff1681526020019081526020015f205f82825401925050819055505b8173ffffffffffffffffffffffffffffffffffffffff168373ffffffffffffffffffffffffffffffffffffffff167fddf252ad1be2c89b69c2b068fc378daa952ba7f163c4a11628f55a4df523b3ef836040516111679190611394565b60405180910390a3505050565b5f73ffffffffffffffffffffffffffffffffffffffff168273ffffffffffffffffffffffffffffffffffffffff16036111e4575f6040517f96c6fd1e0000000000000000000000000000000000000000000000000000000081526004016111db91906114d3565b60405180910390fd5b6111ef825f83610f5b565b5050565b5f81519050919050565b5f82825260208201905092915050565b8281835e5f83830152505050565b5f601f19601f8301169050919050565b5f611235826111f3565b61123f81856111fd565b935061124f81856020860161120d565b6112588161121b565b840191505092915050565b5f6020820190508181035f83015261127b818461122b565b905092915050565b5f5ffd5b5f73ffffffffffffffffffffffffffffffffffffffff82169050919050565b5f6112b082611287565b9050919050565b6112c0816112a6565b81146112ca575f5ffd5b50565b5f813590506112db816112b7565b92915050565b5f819050919050565b6112f3816112e1565b81146112fd575f5ffd5b50565b5f8135905061130e816112ea565b92915050565b5f5f6040838503121561132a57611329611283565b5b5f611337858286016112cd565b925050602061134885828601611300565b9150509250929050565b5f8115159050919050565b61136681611352565b82525050565b5f60208201905061137f5f83018461135d565b92915050565b61138e816112e1565b82525050565b5f6020820190506113a75f830184611385565b92915050565b5f5f5f606084860312156113c4576113c3611283565b5b5f6113d1868287016112cd565b93505060206113e2868287016112cd565b92505060406113f386828701611300565b9150509250925092565b5f60ff82169050919050565b611412816113fd565b82525050565b5f60208201905061142b5f830184611409565b92915050565b61143a81611352565b8114611444575f5ffd5b50565b5f8135905061145581611431565b92915050565b5f5f6040838503121561147157611470611283565b5b5f61147e858286016112cd565b925050602061148f85828601611447565b9150509250929050565b5f602082840312156114ae576114ad611283565b5b5f6114bb848285016112cd565b91505092915050565b6114cd816112a6565b82525050565b5f6020820190506114e65f8301846114c4565b92915050565b5f5f6040838503121561150257611501611283565b5b5f61150f858286016112cd565b9250506020611520858286016112cd565b9150509250929050565b7f4e487b71000000000000000000000000000000000000000000000000000000005f52602260045260245ffd5b5f600282049050600182168061156e57607f821691505b6020821081036115815761158061152a565b5b50919050565b5f60408201905061159a5f8301856114c4565b6115a7602083018461135d565b9392505050565b7f4e6f7420617574686f72697a65640000000000000000000000000000000000005f82015250565b5f6115e2600e836111fd565b91506115ed826115ae565b602082019050919050565b5f6020820190508181035f83015261160f816115d6565b9050919050565b5f6060820190506116295f8301866114c4565b6116366020830185611385565b6116436040830184611385565b949350505050565b7f45524332303a206275726e2066726f6d20746865207a65726f206164647265735f8201527f7300000000000000000000000000000000000000000000000000000000000000602082015250565b5f6116a56021836111fd565b91506116b08261164b565b604082019050919050565b5f6020820190508181035f8301526116d281611699565b9050919050565b7f45524332303a206275726e20616d6f756e7420657863656564732062616c616e5f8201527f6365000000000000000000000000000000000000000000000000000000000000602082015250565b5f6117336022836111fd565b915061173e826116d9565b604082019050919050565b5f6020820190508181035f83015261176081611727565b9050919050565b7f4e487b71000000000000000000000000000000000000000000000000000000005f52601160045260245ffd5b5f61179e826112e1565b91506117a9836112e1565b92508282019050808211156117c1576117c0611767565b5b9291505056fea2646970667358221220136a18d00ad1b32c47c28f14bccea99dfdad33fbed33987d0c7b9fd071b9cd0064736f6c634300081c003300000000000000000000000000000000000000000000000000000000000000400000000000000000000000000000000000000000000000000000000000000080000000000000000000000000000000000000000000000000000000000000000a4d6f636b20546f6b656e0000000000000000000000000000000000000000000000000000000000000000000000000000000000000000000000000000000000034d544b0000000000000000000000000000000000000000000000000000000000",
        "nonce": "0x18",
        "chainId": "0xaa37dc"
      },
      "additionalContracts": [],
      "isFixedGasLimit": false
    },
    {
      "hash": "0x0542757608a8a2271e00dc327e0b2bdfa4462305209c93f3a2fd94f1700f9ad2",
      "transactionType": "CALL",
      "contractName": "MockERC20",
      "contractAddress": "0x6a09df4cefe76e41dc9a0900e7f8f8fdc65c406e",
      "function": "setBridgeOperator(address,bool)",
      "arguments": [
        "0xf91f056855522C267624d5a921578D9a812E78F4",
        "true"
      ],
      "transaction": {
        "from": "0xf91f056855522c267624d5a921578d9a812e78f4",
        "to": "0x6a09df4cefe76e41dc9a0900e7f8f8fdc65c406e",
        "gas": "0x104e8",
        "value": "0x0",
        "input": "0x3ab043b2000000000000000000000000f91f056855522c267624d5a921578d9a812e78f40000000000000000000000000000000000000000000000000000000000000001",
        "nonce": "0x19",
        "chainId": "0xaa37dc"
      },
      "additionalContracts": [],
      "isFixedGasLimit": false
    },
    {
      "hash": "0xd9b1dc063b9db38e3a6c8b421141020a4b07370c8f221004f76f48c3123adabe",
      "transactionType": "CALL",
      "contractName": "MockERC20",
      "contractAddress": "0x6a09df4cefe76e41dc9a0900e7f8f8fdc65c406e",
      "function": "mint(address,uint256)",
      "arguments": [
        "0x1804c8AB1F12E6bbf3894d4083f33e07309d1f38",
        "1000000000000000000000000"
      ],
      "transaction": {
        "from": "0xf91f056855522c267624d5a921578d9a812e78f4",
        "to": "0x6a09df4cefe76e41dc9a0900e7f8f8fdc65c406e",
        "gas": "0x188d4",
        "value": "0x0",
        "input": "0x40c10f190000000000000000000000001804c8ab1f12e6bbf3894d4083f33e07309d1f3800000000000000000000000000000000000000000000d3c21bcecceda1000000",
        "nonce": "0x1a",
        "chainId": "0xaa37dc"
      },
      "additionalContracts": [],
      "isFixedGasLimit": false
    },
    {
      "hash": "0xb8e65e776edc4d5851cd682a17e0f86f191daddee99b0cf3025a07422414d81e",
      "transactionType": "CALL",
      "contractName": "MockERC20",
      "contractAddress": "0x6a09df4cefe76e41dc9a0900e7f8f8fdc65c406e",
      "function": "setBridgeOperator(address,bool)",
      "arguments": [
        "0xceA8aAa918bc6C19e5B77841ebD77ff3188385AF",
        "true"
      ],
      "transaction": {
        "from": "0xf91f056855522c267624d5a921578d9a812e78f4",
        "to": "0x6a09df4cefe76e41dc9a0900e7f8f8fdc65c406e",
        "gas": "0x104e8",
        "value": "0x0",
        "input": "0x3ab043b2000000000000000000000000cea8aaa918bc6c19e5b77841ebd77ff3188385af0000000000000000000000000000000000000000000000000000000000000001",
        "nonce": "0x1b",
        "chainId": "0xaa37dc"
      },
      "additionalContracts": [],
      "isFixedGasLimit": false
    },
    {
      "hash": "0x5cc373f3c4b9dca1488bf698c4286d2749c8621b5d982b6675adef0ce19dbedd",
      "transactionType": "CALL",
      "contractName": "MockERC20",
      "contractAddress": "0x6a09df4cefe76e41dc9a0900e7f8f8fdc65c406e",
      "function": "mint(address,uint256)",
      "arguments": [
        "0xceA8aAa918bc6C19e5B77841ebD77ff3188385AF",
        "1000000000000000000000000"
      ],
      "transaction": {
        "from": "0xf91f056855522c267624d5a921578d9a812e78f4",
        "to": "0x6a09df4cefe76e41dc9a0900e7f8f8fdc65c406e",
        "gas": "0x13e3f",
        "value": "0x0",
        "input": "0x40c10f19000000000000000000000000cea8aaa918bc6c19e5b77841ebd77ff3188385af00000000000000000000000000000000000000000000d3c21bcecceda1000000",
        "nonce": "0x1c",
        "chainId": "0xaa37dc"
      },
      "additionalContracts": [],
      "isFixedGasLimit": false
    }
  ],
  "receipts": [
    {
      "status": "0x1",
      "cumulativeGasUsed": "0x429a61",
      "logs": [
        {
          "address": "0x6a09df4cefe76e41dc9a0900e7f8f8fdc65c406e",
          "topics": [
            "0x8be0079c531659141344cd1fd0a4f28419497f9722a3daafe3b4186f6b6457e0",
            "0x0000000000000000000000000000000000000000000000000000000000000000",
            "0x000000000000000000000000f91f056855522c267624d5a921578d9a812e78f4"
          ],
          "data": "0x",
          "blockHash": "0xb30a545e2a6983e6cf8fc80a4fe60962f480539723f221499d261838582af094",
          "blockNumber": "0x1929f1f",
          "transactionHash": "0x80573e83b2bbbda9ba70161b6b222fc939e1d86aaa37a4465f2b43de60d72f27",
          "transactionIndex": "0x9",
          "logIndex": "0xa",
          "removed": false
        }
      ],
      "logsBloom": "0x00000000000000000000000000000000000000000000000000800000000000000000000000000000000000000000000000000000000000000000000000000000000000000000000000000000000000000001000000000000000000000000000000000000020000000000000000000800000000000000000000000000000000400000000000000000000000000000000000000000000000000000000000000000000000000000000000000000000000000400080000000000000000000000000000000000000000000000000000000008000000000000010000000000000020000000000000000800000000000000000000000000000400000000000000000000",
      "type": "0x2",
      "transactionHash": "0x80573e83b2bbbda9ba70161b6b222fc939e1d86aaa37a4465f2b43de60d72f27",
      "transactionIndex": "0x9",
      "blockHash": "0xb30a545e2a6983e6cf8fc80a4fe60962f480539723f221499d261838582af094",
      "blockNumber": "0x1929f1f",
      "gasUsed": "0x167858",
      "effectiveGasPrice": "0xf435a",
      "from": "0xf91f056855522c267624d5a921578d9a812e78f4",
      "to": null,
      "contractAddress": "0x6a09df4cefe76e41dc9a0900e7f8f8fdc65c406e",
      "l1BaseFeeScalar": "0x1db0",
      "l1BlobBaseFee": "0x4",
      "l1BlobBaseFeeScalar": "0xd2730",
      "l1Fee": "0x4813",
      "l1GasPrice": "0xf",
      "l1GasUsed": "0xdabf"
    },
    {
      "status": "0x1",
      "cumulativeGasUsed": "0x435746",
      "logs": [
        {
          "address": "0x6a09df4cefe76e41dc9a0900e7f8f8fdc65c406e",
          "topics": [
            "0xba8c3ada23804cca7937a34fd94dd53794a46b64adf3997a33a373ce216103b8"
          ],
          "data": "0x000000000000000000000000f91f056855522c267624d5a921578d9a812e78f40000000000000000000000000000000000000000000000000000000000000001",
          "blockHash": "0xb30a545e2a6983e6cf8fc80a4fe60962f480539723f221499d261838582af094",
          "blockNumber": "0x1929f1f",
          "transactionHash": "0x0542757608a8a2271e00dc327e0b2bdfa4462305209c93f3a2fd94f1700f9ad2",
          "transactionIndex": "0xa",
          "logIndex": "0xb",
          "removed": false
        }
      ],
      "logsBloom": "0x00000000000000000000000000000000000000000000000000000000000000000000000000000000000000000000000000000000000000000000000000000000000000000000000000000000000000000000000000000000000000000000000000000000000000000000000000000000000000000000000000000000000000000800000000000000000000000000000000000000000000000000000000000000000000000000000000000000000000000400000000000000000000000000000000000000000000001000000000000000000000000000010000000000000000000000000000000000000000000000000200000000000400000000000000000000",
      "type": "0x2",
      "transactionHash": "0x0542757608a8a2271e00dc327e0b2bdfa4462305209c93f3a2fd94f1700f9ad2",
      "transactionIndex": "0xa",
      "blockHash": "0xb30a545e2a6983e6cf8fc80a4fe60962f480539723f221499d261838582af094",
      "blockNumber": "0x1929f1f",
      "gasUsed": "0xbce5",
      "effectiveGasPrice": "0xf435a",
      "from": "0xf91f056855522c267624d5a921578d9a812e78f4",
      "to": "0x6a09df4cefe76e41dc9a0900e7f8f8fdc65c406e",
      "contractAddress": null,
      "l1BaseFeeScalar": "0x1db0",
      "l1BlobBaseFee": "0x4",
      "l1BlobBaseFeeScalar": "0xd2730",
      "l1Fee": "0x20f",
      "l1GasPrice": "0xf",
      "l1GasUsed": "0x640"
    },
    {
      "status": "0x1",
      "cumulativeGasUsed": "0x4473ad",
      "logs": [
        {
          "address": "0x6a09df4cefe76e41dc9a0900e7f8f8fdc65c406e",
          "topics": [
            "0xddf252ad1be2c89b69c2b068fc378daa952ba7f163c4a11628f55a4df523b3ef",
            "0x0000000000000000000000000000000000000000000000000000000000000000",
            "0x0000000000000000000000001804c8ab1f12e6bbf3894d4083f33e07309d1f38"
          ],
          "data": "0x00000000000000000000000000000000000000000000d3c21bcecceda1000000",
          "blockHash": "0xb30a545e2a6983e6cf8fc80a4fe60962f480539723f221499d261838582af094",
          "blockNumber": "0x1929f1f",
          "transactionHash": "0xd9b1dc063b9db38e3a6c8b421141020a4b07370c8f221004f76f48c3123adabe",
          "transactionIndex": "0xb",
          "logIndex": "0xc",
          "removed": false
        },
        {
          "address": "0x6a09df4cefe76e41dc9a0900e7f8f8fdc65c406e",
          "topics": [
            "0x3f2c9d57c068687834f0de942a9babb9e5acab57d516d3480a3c16ee165a4273",
            "0x0000000000000000000000001804c8ab1f12e6bbf3894d4083f33e07309d1f38"
          ],
          "data": "0x00000000000000000000000000000000000000000000d3c21bcecceda1000000",
          "blockHash": "0xb30a545e2a6983e6cf8fc80a4fe60962f480539723f221499d261838582af094",
          "blockNumber": "0x1929f1f",
          "transactionHash": "0xd9b1dc063b9db38e3a6c8b421141020a4b07370c8f221004f76f48c3123adabe",
          "transactionIndex": "0xb",
          "logIndex": "0xd",
          "removed": false
        }
      ],
      "logsBloom": "0x00000000000000000000000000000000000000000000000000000000000000000000000000000000000000000000000000400000000000000000000000000000000000000000000000000008000000000000000000000000000000000000000000000000020000000001000000000800000000000000000000000010000000000000000000000000000004000000000100000000000000000000000000000000000000000000000000000000000000000400000000000000000000000000000000000002000004000000000000000000000000000000010000000800000020000000000000000000000000000000000000000000000400000000000000000000",
      "type": "0x2",
      "transactionHash": "0xd9b1dc063b9db38e3a6c8b421141020a4b07370c8f221004f76f48c3123adabe",
      "transactionIndex": "0xb",
      "blockHash": "0xb30a545e2a6983e6cf8fc80a4fe60962f480539723f221499d261838582af094",
      "blockNumber": "0x1929f1f",
      "gasUsed": "0x11c67",
      "effectiveGasPrice": "0xf435a",
      "from": "0xf91f056855522c267624d5a921578d9a812e78f4",
      "to": "0x6a09df4cefe76e41dc9a0900e7f8f8fdc65c406e",
      "contractAddress": null,
      "l1BaseFeeScalar": "0x1db0",
      "l1BlobBaseFee": "0x4",
      "l1BlobBaseFeeScalar": "0xd2730",
      "l1Fee": "0x20f",
      "l1GasPrice": "0xf",
      "l1GasUsed": "0x640"
    },
    {
      "status": "0x1",
      "cumulativeGasUsed": "0x453092",
      "logs": [
        {
          "address": "0x6a09df4cefe76e41dc9a0900e7f8f8fdc65c406e",
          "topics": [
            "0xba8c3ada23804cca7937a34fd94dd53794a46b64adf3997a33a373ce216103b8"
          ],
          "data": "0x000000000000000000000000cea8aaa918bc6c19e5b77841ebd77ff3188385af0000000000000000000000000000000000000000000000000000000000000001",
          "blockHash": "0xb30a545e2a6983e6cf8fc80a4fe60962f480539723f221499d261838582af094",
          "blockNumber": "0x1929f1f",
          "transactionHash": "0xb8e65e776edc4d5851cd682a17e0f86f191daddee99b0cf3025a07422414d81e",
          "transactionIndex": "0xc",
          "logIndex": "0xe",
          "removed": false
        }
      ],
      "logsBloom": "0x00000000000000000000000000000000000000000000000000000000000000000000000000000000000000000000000000000000000000000000000000000000000000000000000000000000000000000000000000000000000000000000000000000000000000000000000000000000000000000000000000000000000000000800000000000000000000000000000000000000000000000000000000000000000000000000000000000000000000000400000000000000000000000000000000000000000000001000000000000000000000000000010000000000000000000000000000000000000000000000000200000000000400000000000000000000",
      "type": "0x2",
      "transactionHash": "0xb8e65e776edc4d5851cd682a17e0f86f191daddee99b0cf3025a07422414d81e",
      "transactionIndex": "0xc",
      "blockHash": "0xb30a545e2a6983e6cf8fc80a4fe60962f480539723f221499d261838582af094",
      "blockNumber": "0x1929f1f",
      "gasUsed": "0xbce5",
      "effectiveGasPrice": "0xf435a",
      "from": "0xf91f056855522c267624d5a921578d9a812e78f4",
      "to": "0x6a09df4cefe76e41dc9a0900e7f8f8fdc65c406e",
      "contractAddress": null,
      "l1BaseFeeScalar": "0x1db0",
      "l1BlobBaseFee": "0x4",
      "l1BlobBaseFeeScalar": "0xd2730",
      "l1Fee": "0x20f",
      "l1GasPrice": "0xf",
      "l1GasUsed": "0x640"
    },
    {
      "status": "0x1",
      "cumulativeGasUsed": "0x460a2d",
      "logs": [
        {
          "address": "0x6a09df4cefe76e41dc9a0900e7f8f8fdc65c406e",
          "topics": [
            "0xddf252ad1be2c89b69c2b068fc378daa952ba7f163c4a11628f55a4df523b3ef",
            "0x0000000000000000000000000000000000000000000000000000000000000000",
            "0x000000000000000000000000cea8aaa918bc6c19e5b77841ebd77ff3188385af"
          ],
          "data": "0x00000000000000000000000000000000000000000000d3c21bcecceda1000000",
          "blockHash": "0xb30a545e2a6983e6cf8fc80a4fe60962f480539723f221499d261838582af094",
          "blockNumber": "0x1929f1f",
          "transactionHash": "0x5cc373f3c4b9dca1488bf698c4286d2749c8621b5d982b6675adef0ce19dbedd",
          "transactionIndex": "0xd",
          "logIndex": "0xf",
          "removed": false
        },
        {
          "address": "0x6a09df4cefe76e41dc9a0900e7f8f8fdc65c406e",
          "topics": [
            "0x3f2c9d57c068687834f0de942a9babb9e5acab57d516d3480a3c16ee165a4273",
            "0x000000000000000000000000cea8aaa918bc6c19e5b77841ebd77ff3188385af"
          ],
          "data": "0x00000000000000000000000000000000000000000000d3c21bcecceda1000000",
          "blockHash": "0xb30a545e2a6983e6cf8fc80a4fe60962f480539723f221499d261838582af094",
          "blockNumber": "0x1929f1f",
          "transactionHash": "0x5cc373f3c4b9dca1488bf698c4286d2749c8621b5d982b6675adef0ce19dbedd",
          "transactionIndex": "0xd",
          "logIndex": "0x10",
          "removed": false
        }
      ],
      "logsBloom": "0x00000000000000000000000000000000000000000000000000000000000000000000000000000000000000000000000000400000000000000000000000000000000000000000000000000008000000000000000000000000000000040000000000000000020000000000000000000800000000000000000000000010000000000000000000000800000000000000000100000000000000000000000000000000000000000000000000000000000000000400000000000000000000000000000000000002000000080000000000000000000000000000010000000800000020000000000000000000000000000000000000000000000400000000000000000000",
      "type": "0x2",
      "transactionHash": "0x5cc373f3c4b9dca1488bf698c4286d2749c8621b5d982b6675adef0ce19dbedd",
      "transactionIndex": "0xd",
      "blockHash": "0xb30a545e2a6983e6cf8fc80a4fe60962f480539723f221499d261838582af094",
      "blockNumber": "0x1929f1f",
      "gasUsed": "0xd99b",
      "effectiveGasPrice": "0xf435a",
      "from": "0xf91f056855522c267624d5a921578d9a812e78f4",
      "to": "0x6a09df4cefe76e41dc9a0900e7f8f8fdc65c406e",
      "contractAddress": null,
      "l1BaseFeeScalar": "0x1db0",
      "l1BlobBaseFee": "0x4",
      "l1BlobBaseFeeScalar": "0xd2730",
      "l1Fee": "0x20f",
      "l1GasPrice": "0xf",
      "l1GasUsed": "0x640"
    }
  ],
  "libraries": [],
  "pending": [],
  "returns": {},
  "timestamp": 1744574953,
  "chain": 11155420,
  "commit": "484e5b7"
}